:1000000010C017C016C015C014C013C012C011C054
:1000100010C00FC00EC00DC00CC00BC00AC009C07C
:1000200008C011241FBECFE5D2E0DEBFCDBF0DD08A
:1000300025C0E6CF262F2F70209525BB672F782F60
:10004000892F9927609568BB08958FEF87BB88BB80
:1000500054EF29E130E04FEF55BB18BA88E893E13F
:10006000F9013197F1F70197D9F748BB88E893E197
:10007000F9013197F1F70197D9F7EECFF894FFCF57
:00000001FF
