:1000000010C017C016C015C014C013C012C011C054
:1000100010C00FC00EC00DC00CC00BC00AC009C07C
:1000200008C011241FBECFE5D2E0DEBFCDBF64D033
:100030007EC0E6CF93E092BB8BBB80E49CE9019746
:10004000F1F782E082BB81E090E0089591E092BBFD
:100050008BBB80EA9FE00197F1F712BA80E89EE33C
:100060000197F1F7089512BA1BBA80E69AEE01974C
:10007000F1F791E092BB88E38BBB20EA3FE0F90106
:100080003197F1F712BA40E85EE3FA013197F1F7E0
:10009000F9013197F1F792BB9BBBF9013197F1F769
:1000A00012BAFA013197F1F7F9013197F1F792BBE2
:1000B0008DE08BBBF9013197F1F712BAFA01319754
:1000C000F1F7F9013197F1F792BB86E08BBBF901AB
:1000D0003197F1F712BAFA013197F1F7F901319737
:1000E000F1F792BB80E88BBBC9010197F1F712BA17
:1000F000CA010197F1F708958FEF8ABB81BBB3DF87
:1001000088EE93E028EC30E0F9013197F1F70197A0
:10011000D9F783E082BB93E39BBBE0E4FCE9319732
:10012000F1F792E092BB82BB80E090E00895F894F2
:02013000FFCFFF
:00000001FF
