:1000000010C022C021C020C01FC01EC01DC01CC007
:100010001BC01AC019C018C017C016C015C014C024
:1000200013C011241FBECFE5D2E0DEBFCDBF10E06C
:10003000A0E6B0E0E2EDF1E002C005900D92AC3632
:10004000B107D9F79DD0C3C0DBCF93E092BB8BBB88
:1000500080E49CE90197F1F782E082BB81E090E0C7
:10006000089591E092BB8BBB80EA9FE00197F1F786
:1000700012BA80E89EE30197F1F7089512BA1BBA0D
:1000800080E69AEE0197F1F791E092BB88E38BBB93
:1000900020EA3FE0F9013197F1F712BA40E85EE358
:1000A000FA013197F1F7F9013197F1F792BB9BBB58
:1000B000F9013197F1F712BAFA013197F1F7F90125
:1000C0003197F1F792BB8DE08BBBF9013197F1F7D6
:1000D00012BAFA013197F1F7F9013197F1F792BBB2
:1000E00086E08BBBF9013197F1F712BAFA0131972B
:1000F000F1F7F9013197F1F792BB80E88BBBC901A9
:100100000197F1F712BACA010197F1F7089581E05A
:1001100082BB88EA8BBB80EA9FE00197F1F712BAB5
:1001200080E89EE30197F1F7089593E092BB8BBBC3
:1001300080E49CE90197F1F782E082BB81E090E0E6
:1001400008950F931F93AC0120E030E003E0A0E49A
:10015000BCE912E00FC0FA01E20FF31F808199277A
:1001600087FD909502BB8BBBCD010197F1F712BBC8
:100170002F5F3F4F2617370774F31F910F91089594
:100180008FEF8ABB81BB7ADF88EE93E028EC30E00A
:10019000F9013197F1F70197D9F780E690E065E032
:1001A00070E0CFDF81E082BB88EA8BBB80EA9FE012
:1001B0000197F1F712BA80E89EE30197F1F786E61E
:1001C00090E065E070E0BDDF80E090E00895F89495
:0201D000FFCF5F
:0C01D20048656C6C6F00576F726C640025
:00000001FF
