:1000000010C02AC029C028C027C026C025C024C0CF
:1000100023C022C021C020C01FC01EC01DC01CC0E4
:100020001BC011241FBECFE5D2E0DEBFCDBF10E064
:10003000A0E6B0E0EAE9F3E002C005900D92A83630
:10004000B107D9F710E0A8E6B0E001C01D92A936CB
:10005000B107E1F786D19FC1D3CFDF93CF93CDB75F
:10006000DEB72A970FB6F894DEBF0FBECDBF2B8345
:100070003C834D835E836F83788789879A878B81E2
:100080009C819A83898305C089819A8101979A838B
:10009000898389819A810097B9F72A960FB6F894D7
:1000A000DEBF0FBECDBFCF91DF910895DF93CF9319
:1000B00000D0CDB7DEB71A82198218C089819A8123
:1000C000FC01EC59FF4F208189819A81FC01E05AA3
:1000D000FF4F8081281729F0E8E3F0E08FEB808361
:1000E0000EC089819A8101969A83898389819A8138
:1000F000843091051CF3E8E3F0E08FE780830F90F4
:100100000F90CF91DF910895DF93CF930F92CDB7EA
:10011000DEB78BE8898389810F90CF91DF910895B5
:10012000DF93CF9300D0CDB7DEB78A8319828A815F
:10013000813019F481E089830BC08A81823019F4FF
:1001400083E0898305C08A81833011F487E0898345
:1001500089810F900F90CF91DF9108950F931F9396
:10016000DF93CF9300D00F92CDB7DEB789836A8338
:100170004B838981882F90E09C01209530958A815E
:10018000882F90E0822393230097A9F120EC35E992
:1001900049EA55E060E070E080E090E05EDF20EC4E
:1001A00035E949EA55E060E070E080E090E055DF35
:1001B0008981882F90E09C01209530958A81882F35
:1001C00090E0822393230097B1F080916800882FFC
:1001D00090E0FC01EC59FF4F8B8180838091680097
:1001E0008F5F8093680008E310E08091680098DFDB
:1001F0008095F80180830F900F900F90CF91DF9141
:100200001F910F910895DF93CF93CDB7DEB7E2E34F
:10021000F0E08FE78083E0E3F0E0808164E041E399
:100220009DDFE2E3F0E08FE78083E0E3F0E08081B0
:1002300060E142E393DFE2E3F0E08FE78083E0E315
:10024000F0E0808160E243E389DFE2E3F0E08FE702
:100250008083E0E3F0E0808160E441E47FDFE2E37B
:10026000F0E08EEF8083E0E3F0E0808164E044E33F
:1002700075DFE2E3F0E08EEF8083E0E3F0E0808181
:1002800060E145E36BDFE2E3F0E08EEF8083E0E3E3
:10029000F0E0808160E246E361DFE2E3F0E08EEFD0
:1002A0008083E0E3F0E0808160E442E457DFE2E352
:1002B000F0E08DEF8083E0E3F0E0808164E047E3ED
:1002C0004DDFE2E3F0E08DEF8083E0E3F0E080815A
:1002D00060E148E343DFE2E3F0E08DEF8083E0E3B9
:1002E000F0E0808160E249E339DFE2E3F0E08DEFA6
:1002F0008083E0E3F0E0808160E443E42FDFE2E329
:10030000F0E087EF8083E0E3F0E0808164E04AE2A0
:1003100025DFE2E3F0E087EF8083E0E3F0E0808137
:1003200060E140E31BDFE2E3F0E087EF8083E0E39E
:10033000F0E0808160E243E211DFE2E3F0E087EF8A
:100340008083E0E3F0E0808160E444E407DF8091B3
:100350006800843018F0AADE10926800CF91DF9117
:100360000895DF93CF930F92CDB7DEB7CDDE8983AB
:10037000E7E3F0E08FEF8083E1E3F0E089818083C1
:10038000E2E3F0E0898180958083E8E3F0E08FEF9D
:0A039000808339DFFECFF894FFCF21
:08039A003435364230303030BA
:00000001FF
