:1000000010C02AC029C028C027C026C0B4C064C000
:1000100023C022C021C020C01FC01EC01DC01CC0E4
:100020001BC011241FBECFE5D2E0DEBFCDBF10E064
:10003000A0E6B0E0E0E8F2E002C005900D92A23642
:10004000B107D9F710E0A2E6B0E001C01D92A837D1
:10005000B107E1F7DBD012C1D3CFDF93CF9300D04C
:1000600000D0CDB7DEB79C838B838B819C819A8334
:10007000898305C089819A8101979A8389838981BF
:100080009A810097B9F70F900F900F900F90CF9132
:10009000DF910895DF93CF93CDB7DEB7E3E5F0E0CE
:1000A00085E08083E8E5F0E082E08083E9E5F0E048
:1000B00082E08083CF91DF910895DF93CF93CDB716
:1000C000DEB7EEE4F0E085E08083EEE4F0E083E08C
:1000D0008083CF91DF9108951F920F920FB60F92F8
:1000E00011248F939F93EF93FF93DF93CF93CDB71B
:1000F000DEB7809164008F5F80936400809164001C
:100100008F3021F481E0809362001DC080916400F3
:100110008E31C9F4109264001092620080916000E8
:10012000909161008830910529F41092610010923D
:10013000600009C0809160009091610001969093E9
:1001400061008093600080916200813029F4E8E3CF
:10015000F0E08DEF808304C0E8E3F0E08EEF808371
:10016000CF91DF91FF91EF919F918F910F900FBEF3
:100170000F901F9018951F920F920FB60F92112497
:100180008F93AF93BF93EF93FF93DF93CF93CDB74D
:10019000DEB7A8E3B0E0E8E3F0E0808180958C93DF
:1001A000CF91DF91FF91EF91BF91AF918F910F9020
:1001B0000FBE0F901F901895DF93CF9300D0CDB74F
:1001C000DEB789836A83ECE4F0E0208131818981A4
:1001D000882F90E028173907A0F0A8E3B0E0E8E303
:1001E000F0E080818095846080958C93ABE3B0E0F3
:1001F000EBE3F0E0808180958C93ECE4F0E01182F9
:1002000010820F900F90CF91DF910895DF93CF93DD
:10021000CDB7DEB7EAE3F0E08FEF8083E7E3F0E00D
:100220008FEF8083E8E3F0E08FEF808333DF45DFFB
:1002300078948AE580936F0082E5809370008CE467
:100240008093710085E4809372008EE38093730045
:1002500087E38093740081E3809375008CE2809340
:100260007600109277008091600090916100FC010F
:10027000E159FF4F808161E09FDFF5CFF894FFCF18
:0202800001007B
:00000001FF
