:1000000010C01FC01EC01DC01CC01BC01AC019C01C
:1000100018C017C016C015C014C013C012C011C03C
:1000200010C011241FBECFE5D2E0DEBFCDBF10E06F
:10003000A0E6B0E001C01D92A336B107E1F71FD0E2
:1000400070C1DECFDF93CF9300D000D0CDB7DEB745
:100050009C838B838B819C819A83898305C0898152
:100060009A8101979A83898389819A810097B9F748
:100070000F900F900F900F90CF91DF910895DF9325
:10008000CF93CDB7DEB7E3970FB6F894DEBF0FBEC0
:10009000CDBF19821A821B821C821D821E821F8282
:1000A0001886EAE3F0E08FEF8083E7E3F0E08FEF7C
:1000B0008083EBE3F0E08EEF8083E8E3F0E08EEF07
:1000C000808389819A81BEDFEBE3F0E08FEF80834C
:1000D000E8E3F0E08FEF808389819A81B3DF898143
:1000E00089879A819A878B818B879C819C878D8158
:1000F0008D879E819E878F818F879885988B80E4DE
:10010000898B1A8A1B8A1C8A1D8A1E8A1F8A188E4E
:1001100099858989980F998F91E099A3898D9985FF
:10012000891708F019A28A859A89890F8A8F81E038
:100130008AA39A8D8A85981708F01AA299A18A8DA8
:10014000980F9BA391E09CA38BA19A8D891708F02F
:100150001CA28AA19CA1892B8AA38BA18A8F9B8533
:100160008B89980F9B8F91E09DA38B8D9B85891721
:1001700008F01DA28AA19B8D890F8EA381E08FA319
:100180009EA18B8D981708F01FA29DA18FA1982B7F
:100190009DA39EA19B8F8C859C89890F8C8F81E06C
:1001A00088A79C8D8C85981708F018A69DA18C8D2A
:1001B000980F99A791E09AA789A59C8D891708F0B7
:1001C0001AA688A59AA5892B88A789A58C8F9D85B5
:1001D0008D89980F9D8F91E09BA78D8D9D858917A7
:1001E00008F01BA688A59D8D890F8CA781E08DA79F
:1001F0009CA58D8D981708F01DA69BA58DA5982B05
:100200009BA79CA59D8F8E859E89890F8E8F81E0EF
:100210008EA79E8D8E85981708F01EA69BA58E8DA5
:10022000980F9FA791E098AB8FA59E8D891708F036
:1002300018AA8EA598A9892B8EA78FA58E8F9F852A
:100240008F89980F9F8F91E099AB8F8D9F8589172C
:1002500008F019AA8EA59F8D890F8AAB81E08BAB20
:100260009AA98F8D981708F01BAA99A98BA9982B8A
:1002700099AB9AA99F8F8889988D890F88A389A99E
:1002800098A1890F88A3898D89839A8D9A838B8DF4
:100290008B839C8D9C838D8D8D839E8D9E838F8D76
:1002A0008F8398A198878885882391F588858823EE
:1002B00009F0FFCE8F81882359F58F81882309F0BB
:1002C000F8CE8E81882321F58E81882309F0F1CE26
:1002D0008D818823E9F48D81882309F0EACE8C8111
:1002E0008823B1F48C81882309F0E3CE8B818823A5
:1002F00079F48B81882309F0DCCE8A81843240F442
:100300008A81833209F0D5CE8981893208F4D1CE31
:1003100019821A821B821C821D821E821F821886ED
:06032000C8CEF894FFCFE7
:00000001FF
