:1000000010C02AC029C028C027C026C0B8C064C0FC
:1000100023C022C021C020C01FC01EC01DC01CC0E4
:100020001BC011241FBECFE5D2E0DEBFCDBF10E064
:10003000A0E6B0E0E6E8F2E002C005900D92A2363C
:10004000B107D9F710E0A2E6B0E001C01D92A037D9
:10005000B107E1F7DBD015C1D3CFDF93CF9300D049
:1000600000D0CDB7DEB79C838B838B819C819A8334
:10007000898305C089819A8101979A8389838981BF
:100080009A810097B9F70F900F900F900F90CF9132
:10009000DF910895DF93CF93CDB7DEB7E3E5F0E0CE
:1000A00085E08083E8E5F0E082E08083E9E5F0E048
:1000B00082E08083CF91DF910895DF93CF93CDB716
:1000C000DEB7EEE4F0E085E08083EEE4F0E083E08C
:1000D0008083CF91DF9108951F920F920FB60F92F8
:1000E00011248F939F93EF93FF93DF93CF93CDB71B
:1000F000DEB7809164008F5F80936400809164001C
:100100008F3021F481E0809362002EC080916400E2
:100110008E3151F510926400E8E3F0E080916500C3
:10012000807F8095808380916500805F80936500EB
:1001300080916500807F80936500109262008091BD
:100140006000909161008830910529F4109261005F
:100150001092600009C0809160009091610001964A
:100160009093610080936000CF91DF91FF91EF91B8
:100170009F918F910F900FBE0F901F9018951F9217
:100180000F920FB60F921124DF93CF93CDB7DEB746
:10019000CF91DF910F900FBE0F901F901895DF93B6
:1001A000CF9300D0CDB7DEB789836A838981882356
:1001B00051F4A8E3B0E0E8E3F0E0808180958E7F21
:1001C00080958C931EC0ECE4F0E020813181898120
:1001D000882F90E028173907A0F0ABE3B0E0EBE3FD
:1001E000F0E0808180958C93A8E3B0E0E8E3F0E054
:1001F00080818095826080958C93ECE4F0E01182A0
:1002000010820F900F90CF91DF910895DF93CF93DD
:10021000CDB7DEB7EAE3F0E08FEF8083E7E3F0E00D
:100220008FEF8083E1E3F0E01082E8E3F0E08FEF0E
:10023000808330DF42DF78948AE58093670082E52F
:10024000809368008CE48093690085E480936A0061
:100250008EE380936B0087E380936C0081E380934F
:100260006D008BE280936E0010926F0080916000B1
:1002700090916100FC01E959FF4F808161E08FDFBF
:06028000F5CFF894FFCF5A
:02028600010075
:00000001FF
