:1000000010C02AC029C028C027C026C025C046C0AD
:1000100023C022C021C020C01FC01EC01DC01CC0E4
:100020001BC011241FBECFE5D2E0DEBFCDBF11E063
:10003000A0E6B1E001C01D92A236B107E1F711E0E0
:10004000A0E6B0E0E4ECF6E102C005900D92A03627
:10005000B107D9F75DD434CBD3CFDF93CF93CDB7EE
:10006000DEB7E7E3F0E08FEF8083E1E3F0E01082BA
:10007000CF91DF910895DF93CF93CDB7DEB7E3E55E
:10008000F0E085E08083E8E5F0E082E08083E9E568
:10009000F0E082E08083CF91DF9108951F920F926C
:1000A0000FB60F9211248F93EF93FF93DF93CF93AB
:1000B000CDB7DEB7809161018F5F80936101E8E386
:1000C000F0E0809160018095808380916001805193
:1000D00080936001CF91DF91FF91EF918F910F900D
:1000E0000FBE0F901F901895DF93CF9300D000D0D4
:1000F000CDB7DEB79C838B838B819C819A83898368
:1001000005C089819A8101979A83898389819A811F
:100110000097B9F70F900F900F900F90CF91DF914C
:100120000895DF93CF9300D0CDB7DEB7E8E3F0E0DA
:100130008FEF80830F900F90CF91DF910895AF9252
:10014000BF92CF92DF92EF92FF920F931F93DF93B4
:10015000CF93CDB7DEB7CF56D0400FB6F894DEBF01
:100160000FBECDBF1A861B861C861D861E861F8667
:10017000188A198A19821A821B821C821D821E8289
:100180001F821886E0E3F0E080818987E0E3F0E0F9
:1001900080818F3F09F4AAC306C18A858A8F9B8517
:1001A0009B8F8C858C8F9D859D8F8E858E8F9F8557
:1001B0009F8F888988A3998999A381E08AA31BA22C
:1001C0001CA21DA21EA21FA218A619A69A8D8AA162
:1001D000980F9AA791E09AAB8AA59A8D891708F093
:1001E0001AAA8B8D9BA1890F8BA781E08BAB9BA556
:1001F0008B8D981708F01BAA9AA98BA5980F9CAB1A
:1002000091E09DAB8CA99BA5891708F01DAA8BA92D
:100210009DA9892B8BAB8CA98BA79C8D8CA1980F4A
:100220009CA791E09EAB8CA59C8D891708F01EAA17
:100230008BA99CA5890F8FAB81E088AF9FA98CA566
:10024000981708F018AE9EA988AD982B9EAB9FA971
:100250009CA78D8D9DA1890F8DA781E089AF9DA55C
:100260008D8D981708F019AE9EA98DA5980F9AAF9D
:1002700091E09BAF8AAD9DA5891708F01BAE89ADB3
:100280009BAD892B89AF8AAD8DA79E8D8EA1980FCE
:100290009EA791E09CAF8EA59E8D891708F01CAE9D
:1002A00089AD9EA5890F8DAF81E08EAF9DAD8EA5E6
:1002B000981708F01EAE9CAD8EAD982B9CAF9DADEF
:1002C0009EA78F8D9FA1890F8FA781E08FAF9FA5DC
:1002D0008F8D981708F01FAE9CAD8FA5980F2196B3
:1002E0009FAF219791E022969FAF229721968FADE5
:1002F00021979FA5891718F022961FAE22978FADE0
:1003000022969FAD2297892B8FAF21968FAD219793
:100310008FA798A188A5980F98AB91E023969FAFDF
:10032000239788A998A1891718F023961FAE2397C1
:100330008FAD98A9890F24968FAF249781E02596D9
:100340008FAF259724969FAD249788A9981718F00A
:1003500025961FAE259723969FAD239725968FADA3
:100360002597982B23969FAF239724969FAD24978C
:1003700098AB89A199A5890F89AB23968FAD239757
:1003800099A9890F89AB8AA58A879BA59B878CA58C
:100390008C879DA59D878EA58E879FA59F8788A901
:1003A000888B99A9998BE0E3F0E090818985981773
:1003B00009F4F3CEE8E3F0E08985808319821A829C
:1003C0001B821C821D821E821F82188612C2898196
:1003D00026968FAF26979A8127969FAF27978B8176
:1003E00028968FAF28979C8129969FAF29978D815A
:1003F0002A968FAF2A979E812B969FAF2B978F813E
:100400002C968FAF2C9798852D969FAF2D9781E0D6
:100410002E968FAF2E972F961FAE2F9760961FAEFA
:10042000609761961FAE619762961FAE6297639662
:100430001FAE639764961FAE649765961FAE65976F
:1004400026969FAD26972E968FAD2E97980F66967F
:100450009FAF669791E06E969FAF6E9766968FAD51
:10046000669726969FAD2697891718F06E961FAE51
:100470006E9727968FAD27972F969FAD2F97890F51
:1004800067968FAF679781E06F968FAF6F9767968C
:100490009FAD679727968FAD2797981718F06F969F
:1004A0001FAE6F976E969FAD6E9767968FAD6797ED
:1004B000980FA0969FAFA09791E0A1969FAFA197AC
:1004C000A0968FADA09767969FAD6797891718F094
:1004D000A1961FAEA1976F968FAD6F97A1969FAD16
:1004E000A197892B6F968FAF6F97A0968FADA0972E
:1004F00067968FAF679728969FAD289760968FADC8
:100500006097980F68969FAF689791E0A2969FAF0B
:10051000A29768968FAD689728969FAD2897891700
:1005200018F0A2961FAEA2976F968FAD6F97689640
:100530009FAD6897890FA3968FAFA39781E0A4968C
:100540008FAFA497A3969FADA39768968FAD68973A
:10055000981718F0A4961FAEA497A2969FADA297E5
:10056000A4968FADA497982BA2969FAFA297A3961F
:100570009FADA39768969FAF689729968FAD2997EF
:1005800061969FAD6197890F69968FAF699781E0FA
:10059000A5968FAFA59769969FAD699729968FAD60
:1005A0002997981718F0A5961FAEA597A2969FAD0C
:1005B000A29769968FAD6997980FA6969FAFA69759
:1005C00091E0A7969FAFA797A6968FADA69769963D
:1005D0009FAD6997891718F0A7961FAEA797A596A4
:1005E0008FADA597A7969FADA797892BA5968FAF9F
:1005F000A597A6968FADA69769968FAF69972A960D
:100600009FAD2A9762968FAD6297980F6A969FAFBB
:100610006A9791E0A8969FAFA8976A968FAD6A9760
:100620002A969FAD2A97891718F0A8961FAEA8970B
:10063000A5968FADA5976A969FAD6A97890FA996E3
:100640008FAFA99781E0AA968FAFAA97A9969FAD81
:10065000A9976A968FAD6A97981718F0AA961FAE59
:10066000AA97A8969FADA897AA968FADAA97982B00
:10067000A8969FAFA897A9969FADA9976A969FAF96
:100680006A972B968FAD2B9763969FAD6397890FD3
:100690006B968FAF6B9781E0AB968FAFAB976B96F6
:1006A0009FAD6B972B968FAD2B97981718F0AB9645
:1006B0001FAEAB97A8969FADA8976B968FAD6B9723
:1006C000980FAC969FAFAC9791E0AD969FAFAD976A
:1006D000AC968FADAC976B969FAD6B97891718F062
:1006E000AD961FAEAD97AB968FADAB97AD969FAD68
:1006F000AD97892BAB968FAFAB97AC968FADAC9780
:100700006B968FAF6B972C969FAD2C9764968FADA1
:100710006497980F6C969FAF6C9791E0AE969FAFE1
:10072000AE976C968FAD6C972C969FAD2C978917D2
:1007300018F0AE961FAEAE97AB968FADAB976C969A
:100740009FAD6C97890FAF968FAFAF9781E0E09622
:100750008FAFE097AF969FADAF976C968FAD6C97CC
:10076000981718F0E0961FAEE097AE969FADAE9743
:10077000E0968FADE097982BAE969FAFAE97AF9671
:100780009FADAF976C969FAF6C972D968FAD2D97C1
:1007900065969FAD6597890F6D968FAF6D97AE96F5
:1007A0008FADAE976D969FAD6D97890F6D968FAF9C
:1007B0006D9766968FAD6697898367969FAD6797AD
:1007C0009A8368968FAD68978B8369969FAD69977A
:1007D0009C836A968FAD6A978D836B969FAD6B975E
:1007E0009E836C968FAD6C978F836D969FAD6D9742
:1007F0009887AA84BB84CC84DD84EE84FF84088936
:1008000019892A2D3B2D4C2D5D2D6E2D7F2D802F8E
:10081000912F0F2EF7E0AF2EF02DBB24CC24DD243A
:10082000EE24FF2400E010E07DD0A22EB32EC42ED3
:10083000D52EE62EF72E082F192FAA8ABB8ACC8A2E
:10084000DD8AEE8AFF8A088F198F8885998D98171F
:1008500008F440C08885998D891709F0B8CD8F813B
:10086000988D9817B8F18F81988D891709F0AFCDC1
:100870008E819F89981770F18E819F89891709F061
:10088000A6CD8D819E89981728F18D819E89891723
:1008900009F09DCD8C819D899817E0F08C819D8910
:1008A000891709F094CD8B819C89981798F08B81DA
:1008B0009C89891709F08BCD8A819B89981750F004
:1008C0008A819B89891709F082CD89819A89981735
:1008D00008F07DCDE8E3F0E08FEF80831A861B8679
:1008E0001C861D861E861F86188A198AC159DF4FED
:1008F0000FB6F894DEBF0FBECDBFCF91DF911F9131
:100900000F91FF90EF90DF90CF90BF90AF90089540
:10091000DF93CF93CDB7DEB7AEDB78949EDB01DCFF
:100920000EDCFECFAEE5B0E0E7E9F4E092C6A8E069
:100930004E010894811C911CF4016A2E11926A9454
:10094000E9F729833A834B835C836D837E838F83AE
:100950009887CE010996FC011192AA95E9F7A9861C
:10096000BA86CB86DC86ED86FE860F87188B2984B7
:100970003A844B845C84ED84FE840F8518896980F9
:100980007A808B809C806DA67EA68FA698AA6D80AB
:100990007E808F809884E114F1040105110509F02F
:1009A000A0C3621473048404950408F037C100E006
:1009B000201600E0300601E0400600E0500688F412
:1009C0001FEF211631044104510439F030F048E0A2
:1009D000E42EF12C012D112D18C0EE24FF248701E7
:1009E00014C020E0221620E0320620E0420621E07A
:1009F000520630F038E1E32EF12C012D112D05C007
:100A000020E1E22EF12C012D112DD201C1010E2C7D
:100A100004C0B695A795979587950A94D2F7805A02
:100A20009F4FDC012C9180E290E0A0E0B0E08E19B5
:100A30009F09A00BB10B7C018D01E21AF10801099D
:100A40001109E114F10401051105A1F10E2C04C0F6
:100A5000220C331C441C551C0A94D2F7A4019301A8
:100A60000E2C04C0220F331F441F551F0A94D2F7C7
:100A700080E290E08E199F096DA47EA48FA498A8AF
:100A800004C096948794779467948A95D2F7622AE3
:100A9000732A842A952AADA4BEA4CFA4D8A804C0E2
:100AA000AA0CBB1CCC1CDD1CEA94D2F7ADA6BEA6DA
:100AB000CFA6D8AA6201EE24FF24CDAADEAAEFAA0F
:100AC000F8AE920181012070307009AF1AAF2BAFE0
:100AD0003CAFC401B301A701960199D57B018C01FC
:100AE000C401B3012DA93EA94FA958AD90D5C901A4
:100AF000DA013C014D01C401B30129AD3AAD4BAD62
:100B00005CAD66D59B01AC018701FF24EE24ADA44A
:100B1000BEA4CFA4D8A8C601AA27BB275701680145
:100B2000A82AB92ACA2ADB2AA216B306C406D50601
:100B3000E0F408946108710881089108A20CB31CC4
:100B4000C41CD51CA214B304C404D50470F0A216AE
:100B5000B306C406D50648F40894610871088108F4
:100B60009108A20CB31CC41CD51CA21AB30AC40A57
:100B7000D50AC601B5012DA93EA94FA958AD47D543
:100B80007B018C01C601B5012DA93EA94FA958AD25
:100B90003ED5C901DA015C016D01C601B50129AD7F
:100BA0003AAD4BAD5CAD14D59B01AC018701FF2480
:100BB000EE248DA59EA5AFA5B8A9A070B070E82AB7
:100BC000F92A0A2B1B2BE216F30604071507C0F4BB
:100BD0000894A108B108C108D108E20CF31C041D57
:100BE000151DE214F3040405150550F0E216F30692
:100BF0000407150728F40894A108B108C108D10812
:100C0000D3019927882786017501E82AF92A0A2B3A
:100C10001B2BE9AAFAAA0BAB1CABB8C421143104F4
:100C20004104510469F461E070E080E090E020E06C
:100C300030E040E050E0EBD4C901DA011C012D01A5
:100C400000E0201600E0300601E0400600E050061B
:100C500088F41FEF211631044104510431F028F0CB
:100C600048E050E060E070E017C040E050E060E035
:100C700070E012C020E0221620E0320620E042069A
:100C800021E0520628F048E150E060E070E004C046
:100C900040E150E060E070E0D201C101042E04C0E8
:100CA000B695A795979587950A94D2F7805A9F4F46
:100CB000DC012C91E0E2EE2EF12C012D112DD8015A
:100CC000C701841B950BA60BB70B821B9109A109C9
:100CD000B1090097A105B10561F464015301A2189F
:100CE000B308C408D50831E0632E712C812C912CF7
:100CF00018C16F968FAF6F97082E04C0220C331C5B
:100D0000441C551C0A94D2F7EE2DE81B64015301D4
:100D10000E2E04C0D694C794B794A7940A94D2F721
:100D2000A40193016F960FAC6F9704C0220F331F7D
:100D3000441F551F0A94D2F76DA47EA48FA498A8CF
:100D40000E2E04C096948794779467940A94D2F7F1
:100D500084017301E22AF32A042B152BE9A6FAA6D3
:100D60000BA71CA7320188249924920181012070CD
:100D7000307021960CAF1DAF2EAF3FAF2197C6014B
:100D8000B501A401930143D47B018C01C601B501D7
:100D9000A40193013CD4C901DA0125968CAF9DAF23
:100DA000AEAFBFAF2597BC01CD0121962CAD3DADB7
:100DB0004EAD5FAD21970CD49B01AC018701FF24A0
:100DC000EE24A9A4BAA4CBA4DCA4C601AA27BB27FD
:100DD0005C016D01AE28BF28C02AD12AA216B30635
:100DE000C406D50660F525966CAD7DAD8EAD9FAD84
:100DF0002597615070408040904025966CAF7DAF44
:100E00008EAF9FAF2597A20CB31CC41CD51CA21497
:100E1000B304C404D50498F0A216B306C406D506DC
:100E200070F4615070408040904025966CAF7DAF6B
:100E30008EAF9FAF2597A20CB31CC41CD51CA21A61
:100E4000B30AC40AD50AC601B501A4019301DFD3D0
:100E50007B018C01C601B501A4019301D8D3C9015E
:100E6000DA013C014D01C401B30121962CAD3DAD29
:100E70004EAD5FAD2197ACD39B01AC018701FF2440
:100E8000EE2489A59AA5ABA5BCA5A070B0705701AA
:100E90006801A82AB92ACA2ADB2AA216B306C40600
:100EA000D506E0F408946108710881089108A20C45
:100EB000B31CC41CD51CA214B304C404D50470F024
:100EC000A216B306C406D50648F408946108710852
:100ED00081089108A20CB31CC41CD51C8DA59EA52D
:100EE000AFA5B8A96F960FAC6F9704C0880F991F74
:100EF000AA1FBB1F0A94D2F78DA79EA7AFA7B8ABB6
:100F0000A21AB30AC40AD50A2596ECACFDAC0EAD04
:100F10001FAD2597D70199278827682A792A8A2A19
:100F20009B2A82012227332729960CAF1DAF2EAFB3
:100F30003FAF2997A2019101407050702D962CAFC0
:100F40003DAF4EAF5FAF2D97C601B50129962CADD1
:100F50003DAD4EAD5FAD29975AD37B018C01C601E3
:100F6000B50129962CAD3DAD4EAD5FAD29974FD360
:100F7000C901DA0161968CAF9DAFAEAFBFAF61978B
:100F8000BC01CD012D962CAD3DAD4EAD5FAD2D9785
:100F90001FD39B01AC018701FF24EE24ADA4BEA4A6
:100FA000CFA4D8A8C601AA27BB2757016801A82A41
:100FB000B92ACA2ADB2AA216B306C406D50660F5EA
:100FC00061966CAD7DAD8EAD9FAD61976150704007
:100FD0008040904061966CAF7DAF8EAF9FAF6197C0
:100FE000A20CB31CC41CD51CA214B304C404D504A5
:100FF00098F0A216B306C406D50670F4615070408E
:101000008040904061966CAF7DAF8EAF9FAF61978F
:10101000A20CB31CC41CD51CA21AB30AC40AD50A5C
:10102000C601B50129962CAD3DAD4EAD5FAD2997FA
:10103000EED27B018C01C601B50129962CAD3DADE8
:101040004EAD5FAD2997E3D2C901DA015C016D01B4
:10105000C601B5012D962CAD3DAD4EAD5FAD2D97C2
:10106000B7D29B01AC018701FF24EE248DA59EA57C
:10107000AFA5B8A9A070B070E82AF92A0A2B1B2BDB
:10108000E216F30604071507C0F40894A108B10896
:10109000C108D108E20CF31C041D151DE214F30471
:1010A0000405150550F0E216F3060407150728F4A9
:1010B0000894A108B108C108D1086196ECACFDAC58
:1010C0000EAD1FAD6197D70199278827960185013D
:1010D000082B192B2A2B3B2B09AB1AAB2BAB3CABA8
:1010E00058C26E147F048006910608F447C220E0BF
:1010F000E21620E0F20621E0020720E0120788F461
:101100003FEFE316F1040105110531F028F048E046
:1011100050E060E070E017C040E050E060E070E058
:1011200012C040E0E41640E0F40640E0040741E06D
:10113000140728F048E150E060E070E004C040E1AE
:1011400050E060E070E0D801C701042E04C0B695FD
:10115000A795979587950A94D2F7805A9F4FDC01FF
:101160002C9130E2A32EB12CC12CD12CD601C5017B
:10117000841B950BA60BB70B821B9109A109B10922
:101180000097A105B10589F4E614F70408051905CF
:1011900008F4E8C16DA47EA48FA498A86214730417
:1011A0008404950408F0DEC1E9C16E968FAF6E9796
:1011B000082E04C0EE0CFF1C001F111F0A94D2F76A
:1011C0006A2D681BD201C101062E04C0B695A795F1
:1011D000979587950A94D2F75C016D01AE28BF28D8
:1011E000C02AD12AADA2BEA2CFA2D8A672016101A7
:1011F0006E960FAC6E9704C0CC0CDD1CEE1CFF1C71
:101200000A94D2F7C9A2DAA2EBA2FCA264015301AC
:10121000062E04C0D694C794B794A7940A94D2F724
:10122000D401C3016E960FAC6E9704C0880F991F4E
:10123000AA1FBB1F0A94D2F7EDA4FEA40FA518A9FC
:1012400004C016950795F794E7946A95D2F737018D
:101250004801682A792A8A2A9B2A6D8E7E8E8F8E73
:1012600098A2EDA0FEA00FA118A53801882499240A
:10127000980187012070307065960CAF1DAF2EAFBE
:101280003FAF6597C601B501A4019301C0D17B01B1
:101290008C01C601B501A4019301B9D1C901DA01DC
:1012A0001C012D01C201B10165962CAD3DAD4EADC5
:1012B0005FAD65978DD19B01AC018701FF24EE24C2
:1012C000AD8CBE8CCF8CD8A0C601AA27BB275701F6
:1012D0006801A82AB92ACA2ADB2AA216B306C406BC
:1012E000D50600F508942108310841085108EDA001
:1012F000FEA00FA118A5AE0CBF1CC01ED11EAE14BF
:10130000BF04C006D10670F0A216B306C406D50607
:1013100048F408942108310841085108AE0CBF1C5C
:10132000C01ED11EA21AB30AC40AD50AC601B5014D
:10133000A40193016CD17B018C01C601B501A4010C
:10134000930165D1C901DA013C014D01C401B3012A
:1013500065962CAD3DAD4EAD5FAD659739D19B0126
:10136000AC018701FF24EE248D8D9E8DAF8DB8A139
:10137000A070B07057016801A82AB92ACA2ADB2ACE
:10138000A216B306C406D50600F5089461087108D4
:10139000810891086DA17EA18FA198A5A60EB71E08
:1013A000C81ED91EA616B706C806D90670F0A21622
:1013B000B306C406D50648F408946108710881088C
:1013C0009108A60EB71EC81ED91ED601C501821BE4
:1013D000930BA40BB50B898F9A8FAB8FBC8FD10168
:1013E0009927882764015301A82AB92ACA2ADB2A27
:1013F000A9AABAAACBAADCAA860175012FEF3FEFF2
:1014000040E050E0E222F32204231523A6016627E0
:1014100077276D964CAF5DAF6EAF7FAF6D97A9A08C
:10142000BAA0CBA0DCA06FEF7FEF80E090E0A62217
:10143000B722C822D92289A19AA1ABA1BCA11D01C2
:1014400044245524C801B701A6019501C1D069966D
:101450006CAF7DAF8EAF9FAF6997C801B701A20196
:101460009101B6D03B014C016D966CAD7DAD8EAD5A
:101470009FAD6D97A6019501ABD07B018C016D9658
:101480006CAD7DAD8EAD9FAD6D97A2019101A0D0E9
:101490005B016C01A8019701260D371D481D591DE0
:1014A00069966CAC7DAC8EAC9FAC6997C401AA27E1
:1014B000BB27280F391F4A1F5B1F2E153F0540070A
:1014C000510748F4E12CF12C61E0062F112DAE0CF0
:1014D000BF1CC01ED11ECA01AA27BB27BC01CD015B
:1014E0006A0D7B1D8C1D9D1D698C7A8C8B8C9C8C50
:1014F000661677068806990640F166157705880511
:10150000990509F043C0D9019927882769962CAD20
:101510003DAD4EAD5FAD699740705070820F931F27
:10152000A41FB51F2DA53EA54FA558A96E960FACBB
:101530006E9704C0220F331F441F551F0A94D2F721
:10154000281739074A075B0708F509A91AA92BA923
:101550003CA9015010402040304009AB1AAB2BABE6
:101560003CAB14C066247724430121E030E040E026
:1015700050E029AB3AAB4BAB5CAB0BC06624772495
:10158000430119AA1AAA1BAA1CAA03C0662477241D
:101590004301FE01719688E0DF011D928A95E9F70B
:1015A000A9A8BAA8CBA8DCA8A98ABA8ACB8ADC8A5F
:1015B0006D8A7E8A8F8A988E29A93A894B895C899F
:1015C000662D7E898F89988DC25ADF4FE2E15DC01A
:1015D000629FD001739FF001829FE00DF11D649F17
:1015E000E00DF11D929FF00D839FF00D749FF00DA3
:1015F000659FF00D9927729FB00DE11DF91F639F44
:10160000B00DE11DF91FBD01CF0111240895A1E224
:101610001A2EAA1BBB1BFD010DC0AA1FBB1FEE1F6C
:10162000FF1FA217B307E407F50720F0A21BB30BB7
:10163000E40BF50B661F771F881F991F1A9469F733
:1016400060957095809590959B01AC01BD01CF018F
:1016500008952F923F924F925F926F927F928F9256
:101660009F92AF92BF92CF92DF92EF92FF920F9331
:101670001F93CF93DF93CDB7DEB7CA1BDB0B0FB63B
:10168000F894DEBF0FBECDBF09942A8839884888F8
:101690005F846E847D848C849B84AA84B984C8848E
:1016A000DF80EE80FD800C811B81AA81B981CE0F85
:1016B000D11D0FB6F894DEBF0FBECDBFED0108956A
:0416C000F894FFCFCC
:1016C40000010202030303030404040404040404E5
:1016D40005050505050505050505050505050505B6
:1016E4000606060606060606060606060606060696
:1016F4000606060606060606060606060606060686
:101704000707070707070707070707070707070765
:101714000707070707070707070707070707070755
:101724000707070707070707070707070707070745
:101734000707070707070707070707070707070735
:101744000808080808080808080808080808080815
:101754000808080808080808080808080808080805
:1017640008080808080808080808080808080808F5
:1017740008080808080808080808080808080808E5
:1017840008080808080808080808080808080808D5
:1017940008080808080808080808080808080808C5
:1017A40008080808080808080808080808080808B5
:1017B40008080808080808080808080808080808A5
:00000001FF
