:1000000010C02AC029C028C027C026C025C055C09E
:1000100023C022C021C020C01FC01EC01DC01CC0E4
:100020001BC011241FBECFE5D2E0DEBFCDBF11E063
:10003000A0E6B1E001C01D92A336B107E1F711E0DF
:10004000A0E6B0E0E0ECF6E102C005900D92A0362B
:10005000B107D9F752D432CBD3CFDF93CF9300D0AF
:1000600000D0CDB7DEB79C838B838B819C819A8334
:10007000898305C089819A8101979A8389838981BF
:100080009A810097B9F70F900F900F900F90CF9132
:10009000DF910895DF93CF93CDB7DEB7E3E5F0E0CE
:1000A00085E08083E8E5F0E082E08083E9E5F0E048
:1000B00082E08083CF91DF9108951F920F920FB657
:1000C0000F9211248F93EF93FF93DF93CF93CDB7CC
:1000D000DEB7809160018F5F809360018091600145
:1000E0008E3169F4E8E3F0E08091610180958083CE
:1000F00080916101805F8093610110926001CF91D6
:10010000DF91FF91EF918F910F900FBE0F901F9095
:100110001895AF92BF92CF92DF92EF92FF920F931A
:100120001F93DF93CF93CDB7DEB7CE56D0400FB637
:10013000F894DEBF0FBECDBF19861A861B861C86BB
:100140001D861E861F86188A19821A821B821C82AF
:100150001D821E821F821886E0E3F0E0808180937A
:100160006201E0E3F0E080818F3F09F00FC1E8E336
:10017000F0E08EEF808388EE9DEF6FDFE8E3F0E044
:100180008FEF808388EE9DEF68DFA5C38985898F17
:100190009A859A8F8B858B8F9C859C8F8D858D8F73
:1001A0009E859E8F8F858F8F988998A381E089A3E4
:1001B0001AA21BA21CA21DA21EA21FA218A6998DE4
:1001C00089A1980F99A791E099AB89A5998D891775
:1001D00008F019AA8A8D9AA1890F8AA781E08AABB3
:1001E0009AA58A8D981708F01AAA99A98AA5980F36
:1001F0009BAB91E09CAB8BA99AA5891708F01CAA30
:100200008AA99CA9892B8AAB8BA98AA79B8D8BA1D4
:10021000980F9BA791E09DAB8BA59B8D891708F04C
:100220001DAA8AA99BA5890F8EAB81E08FAB9EA9E1
:100230008BA5981708F01FAA9DA98FA9982B9DAB95
:100240009EA99BA78C8D9CA1890F8CA781E088AF6C
:100250009CA58C8D981708F018AE9DA98CA5980FB9
:1002600099AF91E09AAF89AD9CA5891708F01AAEB5
:1002700088AD9AAD892B88AF89AD8CA79D8D8DA156
:10028000980F9DA791E09BAF8DA59D8D891708F0D4
:100290001BAE88AD9DA5890F8CAF81E08DAF9CAD65
:1002A0008DA5981708F01DAE9BAD8DAD982B9BAF1B
:1002B0009CAD9DA78E8D9EA1890F8EA781E08EAFEC
:1002C0009EA58E8D981708F01EAE9BAD8EA5980F3B
:1002D0009FAF91E021969FAF21978FAD9EA5891783
:1002E00018F021961FAE21978EAD21969FAD2197D4
:1002F000892B8EAF8FAD8EA79F8D8FA1980F9FA753
:1003000091E022969FAF22978FA59F8D891718F0B5
:1003100022961FAE22978EAD9FA5890F23968FAF91
:10032000239781E024968FAF249723969FAD239740
:100330008FA5981718F024961FAE249722969FAD8C
:10034000229724968FAD2497982B22969FAF2297C1
:1003500023969FAD23979FA788A198A5890F88AB67
:1003600022968FAD229798A9890F88AB89A5898796
:100370009AA59A878BA58B879CA59C878DA58D8731
:100380009EA59E878FA58F8798A9988BE0E3F0E0C4
:10039000908180916201981709F4F8CEE8E3F0E0CB
:1003A00080916201808319821A821B821C821D82C5
:1003B0001E821F82188612C2898125968FAF2597CB
:1003C0009A8126969FAF26978B8127968FAF279786
:1003D0009C8128969FAF28978D8129968FAF29976A
:1003E0009E812A969FAF2A978F812B968FAF2B974E
:1003F00098852C969FAF2C9781E02D968FAF2D97E7
:100400002E961FAE2E972F961FAE2F9760961FAE7B
:10041000609761961FAE619762961FAE6297639672
:100420001FAE639764961FAE649725969FAD259780
:100430002D968FAD2D97980F65969FAF659791E09C
:100440006D969FAF6D9765968FAD659725969FAD1D
:100450002597891718F06D961FAE6D9726968FAD6C
:1004600026972E969FAD2E97890F66968FAF66972B
:1004700081E06E968FAF6E9766969FAD66972696D3
:100480008FAD2697981718F06E961FAE6E976D96E3
:100490009FAD6D9766968FAD6697980F6F969FAFDD
:1004A0006F9791E0A0969FAFA0976F968FAD6F97D3
:1004B00066969FAD6697891718F0A0961FAEA09715
:1004C0006E968FAD6E97A0969FADA097892B6E9676
:1004D0008FAF6E976F968FAD6F9766968FAF66975B
:1004E00027969FAD27972F968FAD2F97980F6796DA
:1004F0009FAF679791E0A1969FAFA19767968FAD49
:10050000679727969FAD2797891718F0A1961FAE7A
:10051000A1976E968FAD6E9767969FAD6797890F7F
:10052000A2968FAFA29781E0A3968FAFA397A296D2
:100530009FADA29767968FAD6797981718F0A3960F
:100540001FAEA397A1969FADA197A3968FADA3973A
:10055000982BA1969FAFA197A2969FADA297679661
:100560009FAF679728968FAD289760969FAD60974D
:10057000890F68968FAF689781E0A4968FAFA49794
:1005800068969FAD689728968FAD2897981718F0B2
:10059000A4961FAEA497A1969FADA19768968FAD24
:1005A0006897980FA5969FAFA59791E0A6969FAFE5
:1005B000A697A5968FADA59768969FAD6897891762
:1005C00018F0A6961FAEA697A4968FADA497A696F0
:1005D0009FADA697892BA4968FAFA497A5968FADB4
:1005E000A59768968FAF689729969FAD29976196D2
:1005F0008FAD6197980F69969FAF699791E0A79625
:100600009FAFA79769968FAD699729969FAD299758
:10061000891718F0A7961FAEA797A4968FADA49739
:1006200069969FAD6997890FA8968FAFA89781E0CB
:10063000A9968FAFA997A8969FADA89769968FADF9
:100640006997981718F0A9961FAEA997A7969FAD1E
:10065000A797A9968FADA997982BA7969FAFA79715
:10066000A8969FADA89769969FAF69972A968FAD78
:100670002A9762969FAD6297890F6A968FAF6A97A5
:1006800081E0AA968FAFAA976A969FAD6A972A963D
:100690008FAD2A97981718F0AA961FAEAA97A7961B
:1006A0009FADA7976A968FAD6A97980FAB969FAF4D
:1006B000AB9791E0AC969FAFAC97AB968FADAB97F5
:1006C0006A969FAD6A97891718F0AC961FAEAC97E3
:1006D000AA968FADAA97AC969FADAC97892BAA9698
:1006E0008FAFAA97AB968FADAB976A968FAF6A978D
:1006F0002B969FAD2B9763968FAD6397980F6B9654
:100700009FAF6B9791E0AD969FAFAD976B968FAD16
:100710006B972B969FAD2B97891718F0AD961FAE50
:10072000AD97AA968FADAA976B969FAD6B97890FE1
:10073000AE968FAFAE9781E0AF968FAFAF97AE9684
:100740009FADAE976B968FAD6B97981718F0AF96DD
:100750001FAEAF97AD969FADAD97AF968FADAF97EC
:10076000982BAD969FAFAD97AE969FADAE976B961B
:100770009FAF6B972C968FAD2C9764969FAD649727
:10078000890F6C968FAF6C97AD968FADAD976C96C9
:100790009FAD6C97890F6C968FAF6C9765968FADF8
:1007A0006597898366969FAD66979A8367968FADA6
:1007B00067978B8368969FAD68979C8369968FAD8A
:1007C00069978D836A969FAD6A979E836B968FAD6E
:1007D0006B978F836C969FAD6C979887A984BA842A
:1007E000CB84DC84ED84FE840F8518892A2D3B2D73
:1007F0004C2D5D2D6E2D7F2D802F912F0F2EF7E02C
:10080000AF2EF02DBB24CC24DD24EE24FF2400E009
:1008100010E086D0A22EB32EC42ED52EE62EF72EB3
:10082000082F192FA98ABA8ACB8ADC8AED8AFE8A18
:100830000F8B188F8885988D981708F440C088858D
:10084000988D891709F0B8CD8F819F899817B8F1D5
:100850008F819F89891709F0AFCD8E819E89981766
:1008600070F18E819E89891709F0A6CD8D819D89B1
:10087000981728F18D819D89891709F09DCD8C816C
:100880009C899817E0F08C819C89891709F094CD98
:100890008B819B89981798F08B819B89891709F028
:1008A0008BCD8A819A89981750F08A819A89891705
:1008B00009F082CD89819989981708F07DCDE8E308
:1008C000F0E08FEF808319861A861B861C861D86B2
:1008D0001E861F86188AC259DF4F0FB6F894DEBFF6
:1008E0000FBECDBFCF91DF911F910F91FF90EF9081
:1008F000DF90CF90BF90AF900895DF93CF93CDB7A7
:10090000DEB7E7E3F0E08FEF8083E1E3F0E0108211
:10091000E8E3F0E08FEF8083BDDB7894FADBFECF75
:10092000AEE5B0E0E5E9F4E092C6A8E04E01089437
:10093000811C911CF4016A2E11926A94E9F72983B3
:100940003A834B835C836D837E838F839887CE014C
:100950000996FC011192AA95E9F7A986BA86CB8679
:10096000DC86ED86FE860F87188B29843A844B84BB
:100970005C84ED84FE840F85188969807A808B8081
:100980009C806DA67EA68FA698AA6D807E808F80A3
:100990009884E114F1040105110509F0A0C3621463
:1009A00073048404950408F037C100E0201600E0C9
:1009B000300601E0400600E0500688F41FEF2116E3
:1009C00031044104510439F030F048E0E42EF12CB8
:1009D000012D112D18C0EE24FF24870114C020E042
:1009E000221620E0320620E0420621E0520630F0D6
:1009F00038E1E32EF12C012D112D05C020E1E22E6E
:100A0000F12C012D112DD201C1010E2C04C0B6957F
:100A1000A795979587950A94D2F7805A9F4FDC0146
:100A20002C9180E290E0A0E0B0E08E199F09A00B2D
:100A3000B10B7C018D01E21AF10801091109E114E1
:100A4000F10401051105A1F10E2C04C0220C331C88
:100A5000441C551C0A94D2F7A40193010E2C04C027
:100A6000220F331F441F551F0A94D2F780E290E0F3
:100A70008E199F096DA47EA48FA498A804C0969493
:100A80008794779467948A95D2F7622A732A842A86
:100A9000952AADA4BEA4CFA4D8A804C0AA0CBB1CA0
:100AA000CC1CDD1CEA94D2F7ADA6BEA6CFA6D8AA70
:100AB0006201EE24FF24CDAADEAAEFAAF8AE9201CD
:100AC00081012070307009AF1AAF2BAF3CAFC40169
:100AD000B301A701960199D57B018C01C401B30133
:100AE0002DA93EA94FA958AD90D5C901DA013C0105
:100AF0004D01C401B30129AD3AAD4BAD5CAD66D536
:100B00009B01AC018701FF24EE24ADA4BEA4CFA4B9
:100B1000D8A8C601AA27BB2757016801A82AB92A65
:100B2000CA2ADB2AA216B306C406D506E0F4089446
:100B30006108710881089108A20CB31CC41CD51C63
:100B4000A214B304C404D50470F0A216B306C406FC
:100B5000D50648F408946108710881089108A20C30
:100B6000B31CC41CD51CA21AB30AC40AD50AC601F8
:100B7000B5012DA93EA94FA958AD47D57B018C01E0
:100B8000C601B5012DA93EA94FA958AD3ED5C90151
:100B9000DA015C016D01C601B50129AD3AAD4BAD7D
:100BA0005CAD14D59B01AC018701FF24EE248DA51B
:100BB0009EA5AFA5B8A9A070B070E82AF92A0A2BA3
:100BC0001B2BE216F30604071507C0F40894A108CE
:100BD000B108C108D108E20CF31C041D151DE21474
:100BE000F3040405150550F0E216F3060407150793
:100BF00028F40894A108B108C108D108D3019927A5
:100C0000882786017501E82AF92A0A2B1B2BE9AAF5
:100C1000FAAA0BAB1CABB8C4211431044104510433
:100C200069F461E070E080E090E020E030E040E0D6
:100C300050E0EBD4C901DA011C012D0100E02016BF
:100C400000E0300601E0400600E0500688F41FEFA7
:100C5000211631044104510431F028F048E050E0FD
:100C600060E070E017C040E050E060E070E012C06B
:100C700020E0221620E0320620E0420621E0520663
:100C800028F048E150E060E070E004C040E150E04E
:100C900060E070E0D201C101042E04C0B695A795B2
:100CA000979587950A94D2F7805A9F4FDC012C9133
:100CB000E0E2EE2EF12C012D112DD801C701841B8D
:100CC000950BA60BB70B821B9109A109B1090097DF
:100CD000A105B10561F464015301A218B308C40869
:100CE000D50831E0632E712C812C912C18C16F96A0
:100CF0008FAF6F97082E04C0220C331C441C551C68
:100D00000A94D2F7EE2DE81B640153010E2E04C0A5
:100D1000D694C794B794A7940A94D2F7A4019301E8
:100D20006F960FAC6F9704C0220F331F441F551FDF
:100D30000A94D2F76DA47EA48FA498A80E2E04C0A6
:100D400096948794779467940A94D2F784017301F8
:100D5000E22AF32A042B152BE9A6FAA60BA71CA757
:100D600032018824992492018101207030702196EB
:100D70000CAF1DAF2EAF3FAF2197C601B501A40147
:100D8000930143D47B018C01C601B501A4019301F9
:100D90003CD4C901DA0125968CAF9DAFAEAFBFAF91
:100DA0002597BC01CD0121962CAD3DAD4EAD5FAD7B
:100DB00021970CD49B01AC018701FF24EE24A9A448
:100DC000BAA4CBA4DCA4C601AA27BB275C016D0191
:100DD000AE28BF28C02AD12AA216B306C406D5065B
:100DE00060F525966CAD7DAD8EAD9FAD25976150BC
:100DF00070408040904025966CAF7DAF8EAF9FAF26
:100E00002597A20CB31CC41CD51CA214B304C404A3
:100E1000D50498F0A216B306C406D50670F4615046
:100E200070408040904025966CAF7DAF8EAF9FAFF5
:100E30002597A20CB31CC41CD51CA21AB30AC40A61
:100E4000D50AC601B501A4019301DFD37B018C0152
:100E5000C601B501A4019301D8D3C901DA013C014F
:100E60004D01C401B30121962CAD3DAD4EAD5FAD3A
:100E70002197ACD39B01AC018701FF24EE2489A507
:100E80009AA5ABA5BCA5A070B07057016801A82AAF
:100E9000B92ACA2ADB2AA216B306C406D506E0F48C
:100EA00008946108710881089108A20CB31CC41C45
:100EB000D51CA214B304C404D50470F0A216B30662
:100EC000C406D50648F408946108710881089108A1
:100ED000A20CB31CC41CD51C8DA59EA5AFA5B8A99A
:100EE0006F960FAC6F9704C0880F991FAA1FBB1F86
:100EF0000A94D2F78DA79EA7AFA7B8ABA21AB30AE0
:100F0000C40AD50A2596ECACFDAC0EAD1FAD2597F5
:100F1000D70199278827682A792A8A2A9B2A820159
:100F20002227332729960CAF1DAF2EAF3FAF29974D
:100F3000A2019101407050702D962CAF3DAF4EAF85
:100F40005FAF2D97C601B50129962CAD3DAD4EADD5
:100F50005FAD29975AD37B018C01C601B501299653
:100F60002CAD3DAD4EAD5FAD29974FD3C901DA0130
:100F700061968CAF9DAFAEAFBFAF6197BC01CD01A5
:100F80002D962CAD3DAD4EAD5FAD2D971FD39B0182
:100F9000AC018701FF24EE24ADA4BEA4CFA4D8A841
:100FA000C601AA27BB2757016801A82AB92ACA2A5D
:100FB000DB2AA216B306C406D50660F561966CADB1
:100FC0007DAD8EAD9FAD6197615070408040904087
:100FD00061966CAF7DAF8EAF9FAF6197A20CB31CD3
:100FE000C41CD51CA214B304C404D50498F0A216E2
:100FF000B306C406D50670F461507040804090403E
:1010000061966CAF7DAF8EAF9FAF6197A20CB31CA2
:10101000C41CD51CA21AB30AC40AD50AC601B5015C
:1010200029962CAD3DAD4EAD5FAD2997EED27B013B
:101030008C01C601B50129962CAD3DAD4EAD5FAD1D
:101040002997E3D2C901DA015C016D01C601B5013E
:101050002D962CAD3DAD4EAD5FAD2D97B7D29B011A
:10106000AC018701FF24EE248DA59EA5AFA5B8A9EC
:10107000A070B070E82AF92A0A2B1B2BE216F3069F
:1010800004071507C0F40894A108B108C108D108E5
:10109000E20CF31C041D151DE214F30404051505F0
:1010A00050F0E216F3060407150728F40894A10887
:1010B000B108C108D1086196ECACFDAC0EAD1FAD16
:1010C0006197D7019927882796018501082B192B4D
:1010D0002A2B3B2B09AB1AAB2BAB3CAB58C26E1483
:1010E0007F048006910608F447C220E0E21620E063
:1010F000F20621E0020720E0120788F43FEFE31632
:10110000F1040105110531F028F048E050E060E0FD
:1011100070E017C040E050E060E070E012C040E0D6
:10112000E41640E0F40640E0040741E0140728F02C
:1011300048E150E060E070E004C040E150E060E071
:1011400070E0D801C701042E04C0B695A795979505
:1011500087950A94D2F7805A9F4FDC012C9130E298
:10116000A32EB12CC12CD12CD601C501841B950B0B
:10117000A60BB70B821B9109A109B1090097A10524
:10118000B10589F4E614F7040805190508F4E8C167
:101190006DA47EA48FA498A862147304840495049B
:1011A00008F0DEC1E9C16E968FAF6E97082E04C0BD
:1011B000EE0CFF1C001F111F0A94D2F76A2D681B4A
:1011C000D201C101062E04C0B695A79597958795C3
:1011D0000A94D2F75C016D01AE28BF28C02AD12A3B
:1011E000ADA2BEA2CFA2D8A6720161016E960FACCD
:1011F0006E9704C0CC0CDD1CEE1CFF1C0A94D2F7C9
:10120000C9A2DAA2EBA2FCA264015301062E04C01B
:10121000D694C794B794A7940A94D2F7D401C30183
:101220006E960FAC6E9704C0880F991FAA1FBB1F44
:101230000A94D2F7EDA4FEA40FA518A904C0169530
:101240000795F794E7946A95D2F737014801682A21
:10125000792A8A2A9B2A6D8E7E8E8F8E98A2EDA087
:10126000FEA00FA118A538018824992498018701B0
:101270002070307065960CAF1DAF2EAF3FAF6597F5
:10128000C601B501A4019301C0D17B018C01C60147
:10129000B501A4019301B9D1C901DA011C012D01E5
:1012A000C201B10165962CAD3DAD4EAD5FAD659708
:1012B0008DD19B01AC018701FF24EE24AD8CBE8C47
:1012C000CF8CD8A0C601AA27BB2757016801A82A3E
:1012D000B92ACA2ADB2AA216B306C406D50600F527
:1012E00008942108310841085108EDA0FEA00FA183
:1012F00018A5AE0CBF1CC01ED11EAE14BF04C00684
:10130000D10670F0A216B306C406D50648F40894B8
:101310002108310841085108AE0CBF1CC01ED11E67
:10132000A21AB30AC40AD50AC601B501A4019301E1
:101330006CD17B018C01C601B501A401930165D17B
:10134000C901DA013C014D01C401B30165962CAD20
:101350003DAD4EAD5FAD659739D19B01AC018701C5
:10136000FF24EE248D8D9E8DAF8DB8A1A070B0703E
:1013700057016801A82AB92ACA2ADB2AA216B3068D
:10138000C406D50600F50894610871088108910823
:101390006DA17EA18FA198A5A60EB71EC81ED91E4D
:1013A000A616B706C806D90670F0A216B306C4067C
:1013B000D50648F408946108710881089108A60EC2
:1013C000B71EC81ED91ED601C501821B930BA40BE4
:1013D000B50B898F9A8FAB8FBC8FD1019927882746
:1013E00064015301A82AB92ACA2ADB2AA9AABAAADF
:1013F000CBAADCAA860175012FEF3FEF40E050E059
:10140000E222F32204231523A601662777276D968F
:101410004CAF5DAF6EAF7FAF6D97A9A0BAA0CBA068
:10142000DCA06FEF7FEF80E090E0A622B722C82219
:10143000D92289A19AA1ABA1BCA11D0144245524A4
:10144000C801B701A6019501C1D069966CAF7DAF07
:101450008EAF9FAF6997C801B701A2019101B6D0C5
:101460003B014C016D966CAD7DAD8EAD9FAD6D9722
:10147000A6019501ABD07B018C016D966CAD7DAD65
:101480008EAD9FAD6D97A2019101A0D05B016C0163
:10149000A8019701260D371D481D591D69966CAC92
:1014A0007DAC8EAC9FAC6997C401AA27BB27280FDF
:1014B000391F4A1F5B1F2E153F054007510748F48F
:1014C000E12CF12C61E0062F112DAE0CBF1CC01ECB
:1014D000D11ECA01AA27BB27BC01CD016A0D7B1D05
:1014E0008C1D9D1D698C7A8C8B8C9C8C6616770666
:1014F0008806990640F1661577058805990509F073
:1015000043C0D9019927882769962CAD3DAD4EADD2
:101510005FAD699740705070820F931FA41FB51F75
:101520002DA53EA54FA558A96E960FAC6E9704C089
:10153000220F331F441F551F0A94D2F7281739076B
:101540004A075B0708F509A91AA92BA93CA901506C
:1015500010402040304009AB1AAB2BAB3CAB14C061
:1015600066247724430121E030E040E050E029ABDD
:101570003AAB4BAB5CAB0BC066247724430119AA92
:101580001AAA1BAA1CAA03C0662477244301FE01E1
:10159000719688E0DF011D928A95E9F7A9A8BAA89B
:1015A000CBA8DCA8A98ABA8ACB8ADC8A6D8A7E8A13
:1015B0008F8A988E29A93A894B895C89662D7E8904
:1015C0008F89988DC25ADF4FE2E15DC0629FD001E2
:1015D000739FF001829FE00DF11D649FE00DF11DEE
:1015E000929FF00D839FF00D749FF00D659FF00D9D
:1015F0009927729FB00DE11DF91F639FB00DE11D8A
:10160000F91FBD01CF0111240895A1E21A2EAA1BD2
:10161000BB1BFD010DC0AA1FBB1FEE1FFF1FA217A2
:10162000B307E407F50720F0A21BB30BE40BF50B9F
:10163000661F771F881F991F1A9469F76095709528
:10164000809590959B01AC01BD01CF0108952F922B
:101650003F924F925F926F927F928F929F92AF9242
:10166000BF92CF92DF92EF92FF920F931F93CF938F
:10167000DF93CDB7DEB7CA1BDB0B0FB6F894DEBF26
:101680000FBECDBF09942A88398848885F846E844C
:101690007D848C849B84AA84B984C884DF80EE8096
:1016A000FD800C811B81AA81B981CE0FD11D0FB69F
:1016B000F894DEBF0FBECDBFED010895F894FFCFC3
:1016C00000010202030303030404040404040404E9
:1016D00005050505050505050505050505050505BA
:1016E000060606060606060606060606060606069A
:1016F000060606060606060606060606060606068A
:101700000707070707070707070707070707070769
:101710000707070707070707070707070707070759
:101720000707070707070707070707070707070749
:101730000707070707070707070707070707070739
:101740000808080808080808080808080808080819
:101750000808080808080808080808080808080809
:1017600008080808080808080808080808080808F9
:1017700008080808080808080808080808080808E9
:1017800008080808080808080808080808080808D9
:1017900008080808080808080808080808080808C9
:1017A00008080808080808080808080808080808B9
:1017B00008080808080808080808080808080808A9
:00000001FF
