:1000000010C017C016C015C014C013C012C011C054
:1000100010C00FC00EC00DC00CC00BC00AC009C07C
:1000200008C011241FBECFE5D2E0DEBFCDBF02D095
:100030002AC0E6CFE7E3F0E08FEF8083E1E3F0E072
:100040001082E0E3F0E080818F3F09F005C0E8E333
:10005000F0E08FEF8083F5CF80E08983E0E3F0E08C
:1000600080818F3F21F089818F5F8983F7CFE8E31B
:10007000F0E010828981882309F404C089818F5FB0
:0A0080008983F5CF0895F894FFCFAF
:00000001FF
