:1000000010C017C016C015C014C013C012C011C054
:1000100010C00FC00EC00DC00CC00BC00AC009C07C
:1000200008C011241FBECFE5D2E0DEBFCDBF44D053
:100030009AC0E6CFDF93CF9300D0CDB7DEB71A8258
:10004000198205C089819A8101969A838983898161
:100050009A812DEF893E9207A8F30F900F90CF91D0
:10006000DF910895DF93CF93CDB7DEB7E7E3F0E0FC
:100070008FEF8083CF91DF910895DF93CF93CDB73A
:10008000DEB7E1E3F0E01082CF91DF910895DF93D6
:10009000CF93CDB7DEB7E8E3F0E08FEF8083CF9169
:1000A000DF910895DF93CF93CDB7DEB7E8E3F0E0BB
:1000B0001082CF91DF910895DF93CF9300D000D0CD
:1000C00000D0CDB7DEB71E821D821A821982CADF28
:1000D000D4DFDDDFE0E3F0E08081882F90E09C83D7
:1000E0008B83E0E3F0E080818F3FA1F305C08D8139
:1000F0009E8101969E838D83E0E3F0E08081282F2E
:1001000030E08B819C812817390789F3CBDF1A8275
:10011000198205C089819A8101969A838983E98130
:10012000FA818D819E8127E030E0B90108D0CB01B2
:100130008E179F0778F7ABDF1E821D82CBCFAA1BDD
:10014000BB1B51E107C0AA1FBB1FA617B70710F0C2
:10015000A61BB70B881F991F5A95A9F780959095F4
:0A016000BC01CD010895F894FFCF13
:00000001FF
