:1000000010C01FC01EC01DC01CC01BC01AC019C01C
:1000100018C017C016C015C014C013C012C011C03C
:1000200010C011241FBECFE5D2E0DEBFCDBF10E06F
:10003000A0E6B0E001C01D92A236B107E1F724D0DE
:1000400039C0DECFDF93CF9300D0CDB7DEB79A8330
:10005000898389819A81909361008093600009C0AF
:10006000809160009091610001979093610080936E
:1000700060008091600090916100009789F70F9077
:100080000F90CF91DF910895DF93CF930F92CDB76B
:10009000DEB7E7E3F0E08FEF80831982E8E3F0E07A
:1000A00089818095808388E498EECCDF89818F5F99
:0800B0008983F4CFF894FFCF1F
:00000001FF
